{
  "contractName": "DVote",
  "abi": [
    {
      "inputs": [
        {
          "internalType": "uint8",
          "name": "x",
          "type": "uint8"
        }
      ],
      "name": "vote",
      "outputs": [],
      "stateMutability": "nonpayable",
      "type": "function"
    },
    {
      "inputs": [
        {
          "internalType": "uint8",
          "name": "x",
          "type": "uint8"
        }
      ],
      "name": "get",
      "outputs": [
        {
          "internalType": "uint128",
          "name": "",
          "type": "uint128"
        }
      ],
      "stateMutability": "view",
      "type": "function",
      "constant": true
    },
    {
      "inputs": [],
      "name": "getAll",
      "outputs": [
        {
          "internalType": "uint128[]",
          "name": "",
          "type": "uint128[]"
        }
      ],
      "stateMutability": "view",
      "type": "function",
      "constant": true
    }
  ],
  "bytecode": "0x608060405234801561001057600080fd5b506105c5806100206000396000f3fe608060405234801561001057600080fd5b50600436106100415760003560e01c806353ed514314610046578063b3f98adc14610064578063f72d0b3b14610080575b600080fd5b61004e6100b0565b60405161005b91906103ea565b60405180910390f35b61007e6004803603810190610079919061044a565b6101a5565b005b61009a6004803603810190610095919061044a565b6102d2565b6040516100a79190610486565b60405180910390f35b60606000600367ffffffffffffffff8111156100cf576100ce6104a1565b5b6040519080825280602002602001820160405280156100fd5781602001602082028036833780820191505090505b50905060005b60038160ff16101561019d576000808260ff1660ff16815260200190815260200160002060009054906101000a90046fffffffffffffffffffffffffffffffff16828260ff168151811061015a576101596104d0565b5b60200260200101906fffffffffffffffffffffffffffffffff1690816fffffffffffffffffffffffffffffffff1681525050806101969061052e565b9050610103565b508091505090565b6000339050600160008273ffffffffffffffffffffffffffffffffffffffff1673ffffffffffffffffffffffffffffffffffffffff16815260200190815260200160002060009054906101000a900460ff166102ce576000808360ff1660ff168152602001908152602001600020600081819054906101000a90046fffffffffffffffffffffffffffffffff168092919061023f90610557565b91906101000a8154816fffffffffffffffffffffffffffffffff02191690836fffffffffffffffffffffffffffffffff1602179055505060018060008373ffffffffffffffffffffffffffffffffffffffff1673ffffffffffffffffffffffffffffffffffffffff16815260200190815260200160002060006101000a81548160ff0219169083151502179055505b5050565b60008060008360ff1660ff16815260200190815260200160002060009054906101000a90046fffffffffffffffffffffffffffffffff169050919050565b600081519050919050565b600082825260208201905092915050565b6000819050602082019050919050565b60006fffffffffffffffffffffffffffffffff82169050919050565b6103618161033c565b82525050565b60006103738383610358565b60208301905092915050565b6000602082019050919050565b600061039782610310565b6103a1818561031b565b93506103ac8361032c565b8060005b838110156103dd5781516103c48882610367565b97506103cf8361037f565b9250506001810190506103b0565b5085935050505092915050565b60006020820190508181036000830152610404818461038c565b905092915050565b600080fd5b600060ff82169050919050565b61042781610411565b811461043257600080fd5b50565b6000813590506104448161041e565b92915050565b6000602082840312156104605761045f61040c565b5b600061046e84828501610435565b91505092915050565b6104808161033c565b82525050565b600060208201905061049b6000830184610477565b92915050565b7f4e487b7100000000000000000000000000000000000000000000000000000000600052604160045260246000fd5b7f4e487b7100000000000000000000000000000000000000000000000000000000600052603260045260246000fd5b7f4e487b7100000000000000000000000000000000000000000000000000000000600052601160045260246000fd5b600061053982610411565b915060ff820361054c5761054b6104ff565b5b600182019050919050565b60006105628261033c565b91506fffffffffffffffffffffffffffffffff8203610584576105836104ff565b5b60018201905091905056fea264697066735822122019ebd1d6f672cdf78a99b7645ef8ac6737d9065e0ebd7f25e00e9b6eaba9c34964736f6c63430008110033",
  "immutableReferences": {},
  "source": "// SPDX-License-Identifier: MIT\r\npragma solidity ^0.8.17;\r\n\r\ncontract DVote {\r\n    mapping(uint8 => uint128) private votes;\r\n    mapping(address => bool) private voted;\r\n\r\n    function vote(uint8 x) public {\r\n        address sender = msg.sender;\r\n\r\n        if (!voted[sender]) {\r\n            votes[x]++;\r\n            voted[sender] = true;\r\n        }\r\n    }\r\n\r\n    function get(uint8 x) public view returns (uint128) {\r\n        return votes[x];\r\n    }\r\n\r\n    function getAll() public view returns (uint128[] memory) {\r\n        uint128[] memory ret = new uint128[](3);\r\n\r\n        for (uint8 i = 0; i < 3; ++i) {\r\n            ret[i] = votes[i];\r\n        }\r\n\r\n        return ret;\r\n    }\r\n}",
  "sourcePath": "C:\\Users\\sreen\\OneDrive\\Desktop\\DVote\\Dvote-Truffle\\contracts\\DVote.sol",
  "compiler": {
    "name": "solc",
    "version": "0.8.17+commit.8df45f5f.Emscripten.clang"
  },
  "schemaVersion": "3.4.10",
  "updatedAt": "2023-03-06T14:27:43.647Z",
  "networkType": "ethereum",
  "devdoc": {
    "kind": "dev",
    "methods": {},
    "version": 1
  },
  "userdoc": {
    "kind": "user",
    "methods": {},
    "version": 1
  }
}